S01700004763634170706C69636174696F6E312E737265635B
S11300000C942A000C9449000C9447000C9447006B
S11300100C9447000C9447000C9447000C94470040
S11300200C9447000C9447000C9447000C94470030
S11300300C9447000C9447000C9447000C94470020
S11300400C946C010C9447000C9447000C944700EA
S11300500C94470011241FBECFE5D8E0DEBFCDBF0E
S113006010E0A0E6B0E0E2ECFAE002C005900D92E8
S1130070A839B107D9F720E0A8E9B0E001C01D9282
S1130080A03AB207E1F70E9491020C945F050C9428
S113009000001F920F920FB60F9211242F938F938B
S11300A09F932FEF80E792E0215080409040E1F74A
S11300B000C00000829949C080919900811104C058
S11300C081E08093990034C080919900813069F473
S11300D080916200883220F4809162008F5F02C0B8
S11300E0809162008093620023C0809199008230E5
S11300F069F480916100823320F4809161008F5F04
S113010002C0809161008093610012C080919900C7
S1130110833071F4809160008C3320F4809160000E
S11301208F5F02C0809160008093600010929900FC
S113013080919900833048F480919900882329F0B4
S1130140809199008F5F809399009F918F912F9157
S11301500F900FBE0F901F90189595B39F7E95BB7F
S113016095B39F7D95BB95B3907F282F22952F70D3
S1130170922B95BB95B3906495BB95E09A95F1F756
S1130180000095B39F7B95BBEFE1F3E03197F1F766
S113019000C0000095B3907F8F70892B85BB85B319
S11301A0806485BBF5E0FA95F1F7000085B38F7B99
S11301B085BB8FE39FE10197F1F700C0000008952C
S11301C084B38F6784BB85B38F7D85BB2FEF80E7B6
S11301D092E0215080409040E1F700C0000082E0AE
S11301E00E94AD0088E20E94AD008CE00E94AD0048
S11301F086E00E94AD0081E00E94AD008FE19EE4A4
S11302000197F1F700C00000089595B3906195BB84
S113021095B39F7D95BB95B3907F282F22952F7022
S1130220922B95BB95B3906495BB95E09A95F1F7A5
S1130230000095B39F7B95BBEFE1F3E03197F1F7B5
S113024000C0000095B3907F8F70892B85BB85B368
S1130250806485BBF5E0FA95F1F7000085B38F7BE8
S113026085BB8FE39FE10197F1F700C0000008957B
S1130270CF93DF93EC0103C021960E94050188818E
S11302808111FACFDF91CF91089580E487B98FE887
S113029086B986B1806486B9089581B3806881BBCC
S11302A08AE685BD13BC089583BD089582B3816039
S11302B082BB089582B38E7F82BB089581B381602F
S11302C081BB0E945A01089588B3816088BB089558
S11302D088B38E7F88BB08951F920F920FB60F923A
S11302E011242F933F934F935F936F937F938F9337
S11302F09F93AF93BF93EF93FF9384B195B1909382
S11303009F0080939E0060919E0070919F0080E00A
S113031090E00E94130420E030E040EA50E40E94A0
S1130320CA0420E030EC4FE754E40E946B0320E061
S113033030E048EC52E40E94CA0460939A0070933F
S11303409B0080939C0090939D0080919800811164
S113035044C06091620070E080E090E00E94150467
S113036020919A0030919B0040919C0050919D00F7
S11303700E94C504181624F480E00E9454012DC084
S11303806091620070E080E090E00E94150420918A
S11303909A0030919B0040919C0050919D000E94D6
S11303A066031816BCF06091610070E080E090E094
S11303B00E94150420919A0030919B0040919C006A
S11303C050919D000E94C504181624F48FE70E94E2
S11303D0540103C08FEF0E9454016091600070E0EB
S11303E080E090E00E94150420919A0030919B00D7
S11303F040919C0050919D000E94660318162CF0B9
S11304000E9456010E94640104C00E945A010E9485
S1130410680186B1806486B9FF91EF91BF91AF9175
S11304209F918F917F916F915F914F913F912F9108
S11304300F900FBE0F901F90189587B3816087BBF4
S11304400E946801089587B3877F87BB81B38B7F40
S113045081BB88B3886088BB82B3846082BB8BB75E
S113046080648BBF85B7826085BF0895CF92DF9289
S1130470EF92FF920F931F93CF93DF936B017C0155
S113048080E80E94AD0083E690E00E94380120E0FD
S113049030E040E251E4C701B6010E94CA040E9460
S11304A0DD03EB01CB016AE070E00E9437058B01AC
S11304B0F82E643671054CF0CE0168EE73E00E94AC
S11304C0370580E3860F0E9405010A3011056CF0A0
S11304D0CE0164E670E00E943705CB016AE070E06B
S11304E00E943705805D0E940501C8016AE070E042
S11304F00E943705805D0E9405018EE20E9405017D
S113050080E38F0D0E94050184E790E00E9438018A
S1130510DF91CF911F910F91FF90EF90DF90CF90DB
S113052008950E94E0000E9445010E944D010E942E
S11305305E010E941D020E942302789481E00E94C1
S1130540AD008AE690E00E943801B3991DC02FEFF8
S113055083EC99E0215080409040E1F700C0000016
S1130560B39912C09091980081E0911180E080933A
S1130570980080919800882321F08FEF0E94540105
S113058003C080E00E9454018091990081110BC046
S113059060919A0070919B0080919C0090919D00C5
S11305A00E94360289C081E00E94AD0080919900CA
S11305B0813031F587E790E00E9438018091620034
S11305C0CDEC8C9F812D1124869586958695805D32
S11305D00E940501809162008C9FC12D1124C69553
S11305E0C695C695CC0F9C2F990F990FC90F8C1BDC
S11305F0805D0E94050184E790E00E94380153C0A9
S113060080919900823031F581E890E00E943801B0
S113061080916100CDEC8C9F812D11248695869567
S11306208695805D0E940501809161008C9FC12D9B
S11306301124C695C695C695CC0F9C2F990F990F7A
S1130640C90F8C1B805D0E94050184E790E00E9425
S1130650380129C080919900833029F58CE890E015
S11306600E94380180916000CDEC8C9F812D112473
S1130670869586958695805D0E940501809160002F
S11306808C9FC12D1124C695C695C695CC0F9C2F61
S1130690990F990FC90F8C1B805D0E94050184E797
S11306A090E00E9438012FEF89E698E121508040C4
S11306B09040E1F700C000002FEF81EE94E021505C
S11306C080409040E1F700C000003FCF0E945004FA
S11306D008F481E008950E947F030C948B040E9427
S11306E0840458F00E947D0440F029F45F3F29F00F
S11306F00C94740451110C94BF040C947A040E9459
S11307009C0468F39923B1F3552391F3951B550B7E
S1130710BB27AA2762177307840738F09F5F5F4FD0
S1130720220F331F441FAA1FA9F335D00E2E3AF00F
S1130730E0E832D091505040E695001CCAF72BD027
S1130740FE2F29D0660F771F881FBB1F2617370778
S11307504807AB07B0E809F0BB0B802DBF01FF27AA
S113076093585F4F3AF09E3F510578F00C9474040F
S11307700C94BF045F3FE4F3983ED4F386957795D9
S11307806795B795F7959F5FC9F7880F911D969563
S1130790879597F90895E1E0660F771F881FBB1FBF
S11307A0621773078407BA0720F0621B730B840B6C
S11307B0BA0BEE1F88F7E09508950E94E40368944D
S11307C0B1110C94BF0408950E94A40488F09F57AB
S11307D098F0B92F9927B751B0F0E1F0660F771F61
S11307E0881F991F1AF0BA95C9F714C0B13091F057
S11307F00E94BE04B1E008950C94BE04672F782FC4
S11308008827B85F39F0B93FCCF38695779567951B
S1130810B395D9F73EF490958095709561957F4F87
S11308208F4F9F4F0895E89409C097FB3EF490952D
S11308308095709561957F4F8F4F9F4F9923A9F0B5
S1130840F92F96E9BB279395F69587957795679544
S1130850B795F111F8CFFAF4BB0F11F460FF1BC088
S11308606F5F7F4F8F4F9F4F16C0882311F096E91B
S113087011C0772321F09EE8872F762F05C06623C9
S113088071F096E8862F70E060E02AF09A95660F82
S1130890771F881FDAF7880F9695879597F908953B
S11308A0990F0008550FAA0BE0E8FEEF161617067D
S11308B0E807F907C0F012161306E407F50798F0E5
S11308C0621B730B840B950B39F40A2661F0232BFE
S11308D0242B252B21F408950A2609F4A140A6957A
S11308E08FEF811D811D089597F99F6780E870E05F
S11308F060E008959FEF80EC089500240A94161692
S1130900170618060906089500240A9412161306F9
S1130910140605060895092E0394000C11F4882387
S113092052F0BB0F40F4BF2B11F460FF04C06F5FA3
S11309307F4F8F4F9F4F089557FD9058440F551F79
S113094059F05F3F71F04795880F97FB991F61F04D
S11309509F3F79F087950895121613061406551FC4
S1130960F2CF4695F1DF08C0161617061806991F30
S1130970F1CF86957105610508940895E894BB2725
S113098066277727CB0197F908950E94500408F44D
S11309908FEF08950E94DD040C948B040E947D0463
S11309A038F00E94840420F0952311F00C94740410
S11309B00C947A0411240C94BF040E949C0470F3D8
S11309C0959FC1F3950F50E0551F629FF001729FF0
S11309D0BB27F00DB11D639FAA27F00DB11DAA1FFF
S11309E0649F6627B00DA11D661F829F2227B00D4C
S11309F0A11D621F739FB00DA11D621F839FA00DD7
S1130A00611D221F749F3327A00D611D231F849F26
S1130A10600D211D822F762F6A2F11249F5750407D
S1130A209AF0F1F088234AF0EE0FFF1FBB1F661FF8
S1130A30771F881F91505040A9F79E3F510580F0C1
S1130A400C9474040C94BF045F3FE4F3983ED4F315
S1130A50869577956795B795F795E7959F5FC1F765
S1130A60FE2B880F911D9695879597F9089597FB0E
S1130A70072E16F4009407D077FD09D00E944B0589
S1130A8007FC05D03EF4909581959F4F089570958D
S1130A9061957F4F0895AA1BBB1B51E107C0AA1F94
S1130AA0BB1FA617B70710F0A61BB70B881F991F0B
S1130AB05A95A9F780959095BC01CD010895F894B5
S1050AC0FFCF62
S1130AC2231E1954656D703A200054656D703A20E6
S1130AD22D2D2E2D204300536574204C6F773A2020
S1130AE20053657420486967683A2000536574208E
S10B0AF2437269743A2000000C
S9030000FC
