S01700004763634170706C69636174696F6E312E737265635B
S11300000C942A000C944C000C946B000C948A0001
S11300100C9434000C9434000C9434000C9434008C
S11300200C9434000C9434000C9434000C9434007C
S11300300C9434000C9434000C9434000C9434006C
S11300400C9434000C9434000C9434000C9434005C
S11300500C94340011241FBECFE5D8E0DEBFCDBF21
S11300600E9447000C94A9000C94000085B781609D
S113007085BF85B78D7F85BF85B78C6085BF85B704
S11300808F7B85BF8BB7806E8BBF7894089580EE8D
S113009081BB0E943600FFCF1F920F920FB60F92C2
S11300A011242F938F939F9382B3806282BB2FEF8F
S11300B083E294EF215080409040E1F700C00000BB
S11300C082B38F7D82BB9F918F912F910F900FBE32
S11300D00F901F9018951F920F920FB60F92112434
S11300E02F938F939F9382B3806482BB2FEF83E21D
S11300F094EF215080409040E1F700C0000082B3AB
S11301008F7B82BB9F918F912F910F900FBE0F9089
S11301101F9018951F920F920FB60F9211242F93D0
S11301208F939F9382B3806882BB2FEF83E294EF17
S1130130215080409040E1F700C0000082B38F77E7
S113014082BB9F918F912F910F900FBE0F901F90A4
S10901501895F894FFCF9E
S9030000FC
