:0C800000F8B500BFF8BC08BC9E467047F5
:10800C0008B5074B044613B10021AFF30080054BB4
:10801C001868836A03B19847204600F073F900BFD3
:10802C0000000000B48B000010B5054C237833B968
:10803C00044B13B10448AFF300800123237010BD2F
:10804C00508C010000000000C08B000008B5034BF1
:10805C001BB103490348AFF3008008BD00000000CA
:10806C00548C0100C08B0000154B002B08BF134B28
:10807C009D46A3F5803A00218B460F461348144ABF
:10808C00121A00F06BFD0F4B002B00D098470E4BD3
:10809C00002B00D098470020002104000D000D4853
:1080AC00002802D00C48AFF3008000F033FD200014
:1080BC00290000F085F8FFF7A3FF00BF00000800BF
:1080CC00000000000000000000000000508C0100C7
:1080DC00708C0100000000000000000080B400AFB4
:1080EC00074B9B69064A43F004039361044B9B695D
:1080FC00034A43F00803936100BFBD4680BC704740
:10810C000010024080B582B000AF4FF40073BB800A
:10811C000423BB710123FB713B1D1946274800F05A
:10812C0032FC4FF48063BB800423BB710123FB71D1
:10813C003B1D1946214800F026FC4FF40063BB8020
:10814C000423BB710123FB713B1D19461B4800F036
:10815C001AFC4FF48053BB800423BB710123FB71C9
:10816C003B1D1946154800F00EFC4FF40053BB8024
:10817C000423BB710123FB713B1D19460F4800F012
:10818C0002FC4FF48043BB800423BB710123FB71C1
:10819C003B1D1946094800F0F6FB4FF40043BB8029
:1081AC000423BB710123FB713B1D1946034800F0EE
:1081BC00EAFB00BF0837BD4680BD00BF000C014084
:1081CC0080B588B000AFFFF789FF00F0AFF94248E7
:1081DC0000F00AFA1E2000F09FF800F065F9FFF796
:1081EC0091FF07F1100300221A605A60C3F80720B0
:1081FC0030233B7431237B743223BB743323FB74E5
:10820C0034233B7535237B753623BB753723FB75C0
:10821C0038233B7639237B763B1D00221A605A604B
:10822C00C3F8072001233B7179237B712423BB7195
:10823C003023FB714C233B7212237B720223BB72E3
:10824C001923FB7210237B730023FB771BE0FB7F4E
:10825C0007F12002134413F8103C184600F0A2F961
:10826C00FB7F07F12002134413F81C3C9BB25B020A
:10827C009BB21946194800F038FC642000F04CF809
:10828C00FB7F0133FB77FB7F092BE0D900F00CF966
:10829C0000F0D6F9124800F0A7F91E2000F03CF8C7
:1082AC0000F002F900F042FA0346BB77BB7F002BCB
:1082BC000DD0BB7F3F2B02D0412B0AD002E000F047
:1082CC00F3F807E0BB7F184600F06CF902E000BF42
:1082DC00E8E700BFE6E700BFA08B0000000C014000
:1082EC00A48B000080B582B000AF7860396000F0DC
:1082FC000BFC0246162313604FF0FF331846083769
:10830C00BD4680BD80B582B000AF78604FF0FF31C4
:10831C007868FFF7E7FFFEE780B485B000AF7860C0
:10832C000023FB600BE00023BB6002E0BB68013361
:10833C00BB60BB68FE2BF9D9FB680133FB60FA68A4
:10834C007B689A42EFD300BF1437BD4680BC7047A0
:10835C0080B500AF524B4FF480721A80504B042200
:10836C009A704F4B0122DA704D494E4800F00BFBCE
:10837C004B4B4FF400721A80494B04229A70484BB5
:10838C000122DA704649474800F0FDFA444B4FF49D
:10839C0080621A80424B04229A70414B0122DA709F
:1083AC003F49404800F0EFFA3D4B01221A803C4B0C
:1083BC0004229A703A4B0122DA703949394800F09C
:1083CC00E2FA374B02221A80354B04229A70344B56
:1083DC000122DA703249334800F0D5FA304B0422CE
:1083EC001A802F4B04229A702D4B0122DA702C49E3
:1083FC002C4800F0C8FA2A4B08221A80284B042279
:10840C009A70274B0122DA702549264800F0BBFAF6
:10841C00234B10221A80224B04229A70204B0122EB
:10842C00DA701F491F4800F0AEFA1D4B20221A804B
:10843C001B4B04229A701A4B0122DA701849194806
:10844C0000F0A1FA164B40221A80154B04229A70A8
:10845C00134B0122DA701249124800F094FA104BB7
:10846C0080221A800E4B04229A700D4B0122DA7076
:10847C000B490C4800F087FA00224FF48061094840
:10848C0000F01CFB00224FF48071064800F016FB34
:10849C0000224FF40071034800F010FB00BF80BDB8
:1084AC006C8C01000008014080B500AF012000F089
:1084BC0057F800BF80BD000080B500AF01224FF41B
:1084CC008061074800F0FAFA3220FFF725FF0022FE
:1084DC004FF48061024800F0F1FA00BF80BD00BF8C
:1084EC000008014080B582B000AF03460A46FB711C
:1084FC001346BB71FB79012B08D1BB790F2B05D827
:10850C00BB79803BDBB2184600F02AF8FB79022BD2
:10851C0008D1BB790F2B05D8BB79403BDBB2184691
:10852C0000F01EF800BF0837BD4680BD80B500AF17
:10853C001420FFF7F1FEFFF70BFF0F20FFF7ECFE07
:10854C00FFF7B2FF382000F00BF8062000F008F817
:10855C00802000F005F80F2000F002F800BF80BD6D
:10856C0080B582B000AF0346FB71FB799BB2194614
:10857C000B4800F0BAFA00224FF40071084800F0E2
:10858C009DFA00224FF48071054800F097FA012003
:10859C00FFF7C2FEFFF790FF00BF0837BD4680BD56
:1085AC000008014080B582B000AF0346FB71FB7937
:1085BC009BB219460B4800F098FA00224FF4007158
:1085CC00084800F07BFA01224FF48071054800F056
:1085DC0075FA0120FFF7A0FEFFF76EFF00BF08370A
:1085EC00BD4680BD0008014080B584B000AF786006
:1085FC000023FB601CE0FB680133FB607B685A1CAA
:10860C007A601B781846FFF7CDFFFB68102B04D15E
:10861C0000210220FFF766FF0AE0FB68202B07D140
:10862C00FFF742FF00210120FFF75CFF0023FB60F6
:10863C007B681B78002BDED100BF1037BD4680BD98
:10864C0080B500AF374B01221A80364B04229A704A
:10865C00344B0122DA703349334800F094F9314B32
:10866C0002221A802F4B04229A702E4B0122DA70B0
:10867C002C492D4800F087F92A4B08221A80294BE7
:10868C0004229A70274B0122DA702649264800F002
:10869C007AF9244B10221A80224B04229A70214B17
:1086AC000122DA701F49204800F06DF91D4B202281
:1086BC001A801C4B04229A701A4B0122DA70194949
:1086CC00194800F060F9174B40221A80154B042210
:1086DC009A70144B0122DA701249134800F053F9C6
:1086EC00104B80221A800F4B04229A700D4B0122E2
:1086FC00DA700C490C4800F046F90A4B4FF48072C2
:10870C001A80084B04229A70064B0122DA70054934
:10871C00054800F038F9FF21034800F0E6F900BFE6
:10872C0080BD00BF6C8C0100000C014080B582B094
:10873C0000AF00237B60B4E05E4B1B689BB2012250
:10874C0019465D4800F0BAF95A4B5B689BB201229E
:10875C001946594800F0B2F9564B9B689BB201225E
:10876C001946554800F0AAF9524BDB689BB201221E
:10877C001946514800F0A2F94E4A7B6852F8233052
:10878C009BB2002219464C4800F098F900233B603C
:10879C0080E04A4A3B6852F823309BB2194646485F
:1087AC0000F075F90346002B71D100BF434A3B68BA
:1087BC0052F823309BB219463F4800F068F9034643
:1087CC00002BF3D07B68032B61D801A252F823F065
:1087DC00ED870000158800003D88000065880000CA
:1087EC003B68002B01D1372360E03B68012B01D1A2
:1087FC0034235BE03B68022B01D1312356E03B680C
:10880C00032B3DD13F2351E03B68002B01D1382392
:10881C004CE03B68012B01D1352347E03B68022B30
:10882C0001D1322342E03B68032B2BD130233DE0B6
:10883C003B68002B01D1392338E03B68012B01D177
:10884C00362333E03B68022B01D133232EE03B6807
:10885C00032B19D13D2329E03B68002B01D12F2399
:10886C0024E03B68012B01D12A231FE03B68022B3B
:10887C0001D12D231AE03B68032B07D12B2315E0E4
:10888C0000BF04E000BF02E000BF00E000BF3B6897
:10889C0001333B603B68032B7FF77BAF7B68013375
:1088AC007B607B68032B7FF747AF002318460837A4
:1088BC00BD4680BDDC8B0100000C0140CC8B01005F
:1088CC0080B483B000AF0346FB80FB88802B42D082
:1088DC00802B11DC082B36D0082B06DC022B2ED07B
:1088EC00042B2ED0012B28D047E0202B2FD0402B4F
:1088FC002FD0102B29D040E0B3F5006F33D0B3F557
:10890C00006F09DCB3F5007F29D0B3F5806F28D058
:10891C00B3F5807F21D030E0B3F5005F27D0B3F5FD
:10892C00005F03DCB3F5805F1FD026E0B3F5804F0A
:10893C001FD0B3F5004F1ED01FE000231EE0042310
:10894C001CE008231AE00C2318E0102316E0142373
:10895C0014E0182312E01C2310E000230EE0042383
:10896C000CE008230AE00C2308E0102306E0142393
:10897C0004E0182302E01C2300E0002318460C3707
:10898C00BD4680BC704790B585B000AF786039604B
:10899C000023BB600023FB733B681B88FF2B01D8B3
:1089AC007B6801E07B680433BB603B681B8818461E
:1089BC00FFF786FF03461A460F239340DA43BB6842
:1089CC001B681A40BB681A603B689B78072B0BD05E
:1089DC003B689B78062B07D03B689B78052B03D014
:1089EC003B689B78042B0ED13B689B78043B9B0027
:1089FC005AB23B68DB785BB213435BB2DBB203F079
:108A0C000F03FB7331E03B689B78012B03D03B6871
:108A1C009B78002B07D13B689B789B00DBB203F063
:108A2C000F03FB7321E03B689B78082B02D10023DA
:108A3C00FB731AE03B689B789B00DBB203F00F03DF
:108A4C00FB733B689B78022B07D17B68DB683A6829
:108A5C0012881A437B68DA6007E07B68DB683A6847
:108A6C001288D2431A407B68DA60FC7B3B681B8817
:108A7C001846FFF725FF034604FA03F2BB681B6890
:108A8C001A43BB681A6000BF1437BD4690BD80B452
:108A9C0085B000AF78600B467B807B689A687B88DA
:108AAC001340002B02D00123FB7301E00023FB7366
:108ABC00FB7B18461437BD4680BC704780B483B02E
:108ACC0000AF78600B467B8013467B707B78002B65
:108ADC0003D07A887B681A6102E07A887B685A61D5
:108AEC0000BF0C37BD4680BC704780B483B000AF6C
:108AFC0078600B467B807A887B68DA6000BF0C3725
:108B0C00BD4680BC70470000014B1868704700BF21
:108B1C00EC8B010070B500250C4E0D4CA41BA41061
:108B2C00A54209D1FFF766FA00250A4E0A4CA41B90
:108B3C00A410A54205D170BD56F8253098470135D3
:108B4C00EEE756F8253098470135F2E7C48B010063
:108B5C00C48B0100C48B0100C88B01000346024486
:0C8B6C00934200D1704703F8011BF9E7A9
:0C8B7800F8B500BFF8BC08BC9E46704772
:108B8400495251204558544939206973204861702D
:108B940070656E6564205F7C2D2000004845590097
:108BA4004B65797061642069732072656164790032
:048BB400F08B010041
:088BB800BCF4FF7F0100000086
:048BC00000000000B1
:020000021000EC
:048BC40059800000D4
:048BC80035800000F4
:108BCC00010000000200000008000000100000007E
:108BDC0020000000400000008000000000010000A8
:108BEC00F08B0100000000000000000000000000FD
:108BFC000000000000000000000000000000000069
:108C0C000000000000000000000000000000000058
:108C1C000000000000000000000000000000000048
:108C2C000000000000000000000000000000000038
:108C3C000000000000000000000000000000000028
:048C4C000000000024
:040000030000807504
:00000001FF
